{
  "_format": "hh-sol-artifact-1",
  "contractName": "RealEstate",
  "sourceName": "contracts/RealEstate.sol",
  "abi": [
    {
      "inputs": [
        {
          "internalType": "uint256",
          "name": "commission_",
          "type": "uint256"
        },
        {
          "internalType": "uint256",
          "name": "fee_",
          "type": "uint256"
        }
      ],
      "stateMutability": "nonpayable",
      "type": "constructor"
    },
    {
      "inputs": [
        {
          "internalType": "string",
          "name": "_pictures",
          "type": "string"
        },
        {
          "internalType": "string",
          "name": "_papers",
          "type": "string"
        },
        {
          "internalType": "string",
          "name": "_tax",
          "type": "string"
        },
        {
          "internalType": "string",
          "name": "_clearance",
          "type": "string"
        },
        {
          "internalType": "string",
          "name": "_date",
          "type": "string"
        }
      ],
      "name": "AddProperty",
      "outputs": [],
      "stateMutability": "payable",
      "type": "function"
    },
    {
      "inputs": [
        {
          "internalType": "string",
          "name": "_papers",
          "type": "string"
        },
        {
          "internalType": "string",
          "name": "_date",
          "type": "string"
        },
        {
          "internalType": "uint256",
          "name": "my_property",
          "type": "uint256"
        }
      ],
      "name": "Purchase",
      "outputs": [],
      "stateMutability": "payable",
      "type": "function"
    },
    {
      "inputs": [
        {
          "internalType": "string",
          "name": "_pics",
          "type": "string"
        },
        {
          "internalType": "uint256",
          "name": "_amount",
          "type": "uint256"
        },
        {
          "internalType": "bool",
          "name": "_sale",
          "type": "bool"
        },
        {
          "internalType": "uint256",
          "name": "my_property",
          "type": "uint256"
        }
      ],
      "name": "Sale",
      "outputs": [],
      "stateMutability": "nonpayable",
      "type": "function"
    },
    {
      "inputs": [],
      "name": "getAdmin",
      "outputs": [
        {
          "internalType": "uint256",
          "name": "",
          "type": "uint256"
        },
        {
          "internalType": "uint256",
          "name": "",
          "type": "uint256"
        },
        {
          "internalType": "uint256",
          "name": "",
          "type": "uint256"
        }
      ],
      "stateMutability": "view",
      "type": "function"
    },
    {
      "inputs": [
        {
          "internalType": "uint256",
          "name": "my_property",
          "type": "uint256"
        }
      ],
      "name": "getData",
      "outputs": [
        {
          "internalType": "string",
          "name": "",
          "type": "string"
        },
        {
          "internalType": "string",
          "name": "",
          "type": "string"
        },
        {
          "internalType": "string",
          "name": "",
          "type": "string"
        },
        {
          "internalType": "string",
          "name": "",
          "type": "string"
        },
        {
          "internalType": "string",
          "name": "",
          "type": "string"
        },
        {
          "internalType": "uint256",
          "name": "",
          "type": "uint256"
        },
        {
          "internalType": "address",
          "name": "",
          "type": "address"
        },
        {
          "internalType": "bool",
          "name": "",
          "type": "bool"
        }
      ],
      "stateMutability": "view",
      "type": "function"
    }
  ],
  "bytecode": "0x608060405260016000553480156200001657600080fd5b50604051620012823803806200128283398181016040528101906200003c919062000069565b81600181905550806002819055505050620000ce565b6000815190506200006381620000b4565b92915050565b600080604083850312156200007d57600080fd5b60006200008d8582860162000052565b9250506020620000a08582860162000052565b9150509250929050565b6000819050919050565b620000bf81620000aa565b8114620000cb57600080fd5b50565b6111a480620000de6000396000f3fe60806040526004361061004a5760003560e01c80630178fe3f1461004f57806322d6086614610093578063293da5c3146100af5780635444228f146100d85780636e9960c3146100f4575b600080fd5b34801561005b57600080fd5b5061007660048036038101906100719190610b83565b610121565b60405161008a989796959493929190610c7b565b60405180910390f35b6100ad60048036038101906100a8919061099a565b61046c565b005b3480156100bb57600080fd5b506100d660048036038101906100d19190610b08565b6105f6565b005b6100f260048036038101906100ed9190610a89565b6106f7565b005b34801561010057600080fd5b5061010961084d565b60405161011893929190610d7c565b60405180910390f35b6060806060806060600080600080600360008b81526020019081526020016000209050806000018160010182600201836003018460040185600501548660060160009054906101000a900473ffffffffffffffffffffffffffffffffffffffff168760060160149054906101000a900460ff168780546101a090610f09565b80601f01602080910402602001604051908101604052809291908181526020018280546101cc90610f09565b80156102195780601f106101ee57610100808354040283529160200191610219565b820191906000526020600020905b8154815290600101906020018083116101fc57829003601f168201915b5050505050975086805461022c90610f09565b80601f016020809104026020016040519081016040528092919081815260200182805461025890610f09565b80156102a55780601f1061027a576101008083540402835291602001916102a5565b820191906000526020600020905b81548152906001019060200180831161028857829003601f168201915b505050505096508580546102b890610f09565b80601f01602080910402602001604051908101604052809291908181526020018280546102e490610f09565b80156103315780601f1061030657610100808354040283529160200191610331565b820191906000526020600020905b81548152906001019060200180831161031457829003601f168201915b5050505050955084805461034490610f09565b80601f016020809104026020016040519081016040528092919081815260200182805461037090610f09565b80156103bd5780601f10610392576101008083540402835291602001916103bd565b820191906000526020600020905b8154815290600101906020018083116103a057829003601f168201915b505050505094508380546103d090610f09565b80601f01602080910402602001604051908101604052809291908181526020018280546103fc90610f09565b80156104495780601f1061041e57610100808354040283529160200191610449565b820191906000526020600020905b81548152906001019060200180831161042c57829003601f168201915b505050505093509850985098509850985098509850985050919395975091939597565b6040518061010001604052808681526020018581526020018481526020018381526020018281526020013481526020013373ffffffffffffffffffffffffffffffffffffffff16815260200160001515815250600360008054815260200190815260200160002060008201518160000190805190602001906104ef929190610865565b50602082015181600101908051906020019061050c929190610865565b506040820151816002019080519060200190610529929190610865565b506060820151816003019080519060200190610546929190610865565b506080820151816004019080519060200190610563929190610865565b5060a0820151816005015560c08201518160060160006101000a81548173ffffffffffffffffffffffffffffffffffffffff021916908373ffffffffffffffffffffffffffffffffffffffff16021790555060e08201518160060160146101000a81548160ff0219169083151502179055509050506000808154809291906105ea90610f6c565b91905055505050505050565b60006003600083815260200190815260200160002090508060060160009054906101000a900473ffffffffffffffffffffffffffffffffffffffff1673ffffffffffffffffffffffffffffffffffffffff163373ffffffffffffffffffffffffffffffffffffffff161461069f576040517f08c379a000000000000000000000000000000000000000000000000000000000815260040161069690610d5c565b60405180910390fd5b848160000190805190602001906106b7929190610865565b50670de0b6b3a7640000846106cc9190610e25565b8160050181905550828160060160146101000a81548160ff0219169083151502179055505050505050565b6000600360008381526020019081526020016000209050600115158160060160149054906101000a900460ff16151514610766576040517f08c379a000000000000000000000000000000000000000000000000000000000815260040161075d90610d3c565b60405180910390fd5b806005015434116107ac576040517f08c379a00000000000000000000000000000000000000000000000000000000081526004016107a390610d1c565b60405180910390fd5b838160010190805190602001906107c4929190610865565b50828160040190805190602001906107dd929190610865565b50348160050181905550338160060160006101000a81548173ffffffffffffffffffffffffffffffffffffffff021916908373ffffffffffffffffffffffffffffffffffffffff16021790555060008160060160146101000a81548160ff02191690831515021790555050505050565b60008060008054600154600254925092509250909192565b82805461087190610f09565b90600052602060002090601f01602090048101928261089357600085556108da565b82601f106108ac57805160ff19168380011785556108da565b828001600101855582156108da579182015b828111156108d95782518255916020019190600101906108be565b5b5090506108e791906108eb565b5090565b5b808211156109045760008160009055506001016108ec565b5090565b600061091b61091684610dd8565b610db3565b90508281526020810184848401111561093357600080fd5b61093e848285610ec7565b509392505050565b60008135905061095581611140565b92915050565b600082601f83011261096c57600080fd5b813561097c848260208601610908565b91505092915050565b60008135905061099481611157565b92915050565b600080600080600060a086880312156109b257600080fd5b600086013567ffffffffffffffff8111156109cc57600080fd5b6109d88882890161095b565b955050602086013567ffffffffffffffff8111156109f557600080fd5b610a018882890161095b565b945050604086013567ffffffffffffffff811115610a1e57600080fd5b610a2a8882890161095b565b935050606086013567ffffffffffffffff811115610a4757600080fd5b610a538882890161095b565b925050608086013567ffffffffffffffff811115610a7057600080fd5b610a7c8882890161095b565b9150509295509295909350565b600080600060608486031215610a9e57600080fd5b600084013567ffffffffffffffff811115610ab857600080fd5b610ac48682870161095b565b935050602084013567ffffffffffffffff811115610ae157600080fd5b610aed8682870161095b565b9250506040610afe86828701610985565b9150509250925092565b60008060008060808587031215610b1e57600080fd5b600085013567ffffffffffffffff811115610b3857600080fd5b610b448782880161095b565b9450506020610b5587828801610985565b9350506040610b6687828801610946565b9250506060610b7787828801610985565b91505092959194509250565b600060208284031215610b9557600080fd5b6000610ba384828501610985565b91505092915050565b610bb581610e7f565b82525050565b610bc481610e91565b82525050565b6000610bd582610e09565b610bdf8185610e14565b9350610bef818560208601610ed6565b610bf881611042565b840191505092915050565b6000610c10603a83610e14565b9150610c1b82611053565b604082019050919050565b6000610c33602783610e14565b9150610c3e826110a2565b604082019050919050565b6000610c56602883610e14565b9150610c61826110f1565b604082019050919050565b610c7581610ebd565b82525050565b6000610100820190508181036000830152610c96818b610bca565b90508181036020830152610caa818a610bca565b90508181036040830152610cbe8189610bca565b90508181036060830152610cd28188610bca565b90508181036080830152610ce68187610bca565b9050610cf560a0830186610c6c565b610d0260c0830185610bac565b610d0f60e0830184610bbb565b9998505050505050505050565b60006020820190508181036000830152610d3581610c03565b9050919050565b60006020820190508181036000830152610d5581610c26565b9050919050565b60006020820190508181036000830152610d7581610c49565b9050919050565b6000606082019050610d916000830186610c6c565b610d9e6020830185610c6c565b610dab6040830184610c6c565b949350505050565b6000610dbd610dce565b9050610dc98282610f3b565b919050565b6000604051905090565b600067ffffffffffffffff821115610df357610df2611013565b5b610dfc82611042565b9050602081019050919050565b600081519050919050565b600082825260208201905092915050565b6000610e3082610ebd565b9150610e3b83610ebd565b9250817fffffffffffffffffffffffffffffffffffffffffffffffffffffffffffffffff0483118215151615610e7457610e73610fb5565b5b828202905092915050565b6000610e8a82610e9d565b9050919050565b60008115159050919050565b600073ffffffffffffffffffffffffffffffffffffffff82169050919050565b6000819050919050565b82818337600083830152505050565b60005b83811015610ef4578082015181840152602081019050610ed9565b83811115610f03576000848401525b50505050565b60006002820490506001821680610f2157607f821691505b60208210811415610f3557610f34610fe4565b5b50919050565b610f4482611042565b810181811067ffffffffffffffff82111715610f6357610f62611013565b5b80604052505050565b6000610f7782610ebd565b91507fffffffffffffffffffffffffffffffffffffffffffffffffffffffffffffffff821415610faa57610fa9610fb5565b5b600182019050919050565b7f4e487b7100000000000000000000000000000000000000000000000000000000600052601160045260246000fd5b7f4e487b7100000000000000000000000000000000000000000000000000000000600052602260045260246000fd5b7f4e487b7100000000000000000000000000000000000000000000000000000000600052604160045260246000fd5b6000601f19601f8301169050919050565b7f54686520507572636861736520416d6f756e74206d757374206265206772656160008201527f746572207468616e2053706563696669656420416d6f756e742e000000000000602082015250565b7f5468652050726f7065727479206d75737420626520617661696c61626c65207460008201527f6f2073656c6c2e00000000000000000000000000000000000000000000000000602082015250565b7f546865204368616e67652063616e206f6e6c7920626520646f6e65206279207460008201527f6865204f776e6572000000000000000000000000000000000000000000000000602082015250565b61114981610e91565b811461115457600080fd5b50565b61116081610ebd565b811461116b57600080fd5b5056fea2646970667358221220a437f1cef58330bc4469ffcdc28712f40d4eccbd93044d250e3917dd64638b9864736f6c63430008040033",
  "linkReferences": {},
  "deployedLinkReferences": {}
}