{
  "_format": "hh-sol-artifact-1",
  "contractName": "RealEstate",
  "sourceName": "contracts/RealEstate.sol",
  "abi": [
    {
      "inputs": [
        {
          "internalType": "uint256",
          "name": "commission_",
          "type": "uint256"
        },
        {
          "internalType": "uint256",
          "name": "fee_",
          "type": "uint256"
        }
      ],
      "stateMutability": "nonpayable",
      "type": "constructor"
    },
    {
      "inputs": [
        {
          "internalType": "string",
          "name": "_pictures",
          "type": "string"
        },
        {
          "internalType": "string",
          "name": "_papers",
          "type": "string"
        },
        {
          "internalType": "string",
          "name": "_tax",
          "type": "string"
        },
        {
          "internalType": "string",
          "name": "_clearance",
          "type": "string"
        },
        {
          "internalType": "string",
          "name": "_date",
          "type": "string"
        }
      ],
      "name": "AddProperty",
      "outputs": [],
      "stateMutability": "payable",
      "type": "function"
    },
    {
      "inputs": [
        {
          "internalType": "bool",
          "name": "_sale",
          "type": "bool"
        },
        {
          "internalType": "uint256",
          "name": "my_property",
          "type": "uint256"
        }
      ],
      "name": "OnlyAgency",
      "outputs": [],
      "stateMutability": "nonpayable",
      "type": "function"
    },
    {
      "inputs": [
        {
          "internalType": "string",
          "name": "_papers",
          "type": "string"
        },
        {
          "internalType": "string",
          "name": "_date",
          "type": "string"
        },
        {
          "internalType": "uint256",
          "name": "my_property",
          "type": "uint256"
        }
      ],
      "name": "Purchase",
      "outputs": [],
      "stateMutability": "payable",
      "type": "function"
    },
    {
      "inputs": [
        {
          "internalType": "string",
          "name": "_pics",
          "type": "string"
        },
        {
          "internalType": "uint256",
          "name": "_amount",
          "type": "uint256"
        },
        {
          "internalType": "bool",
          "name": "_sale",
          "type": "bool"
        },
        {
          "internalType": "uint256",
          "name": "my_property",
          "type": "uint256"
        }
      ],
      "name": "Sale",
      "outputs": [],
      "stateMutability": "nonpayable",
      "type": "function"
    },
    {
      "inputs": [],
      "name": "getAdmin",
      "outputs": [
        {
          "internalType": "uint256",
          "name": "",
          "type": "uint256"
        },
        {
          "internalType": "uint256",
          "name": "",
          "type": "uint256"
        },
        {
          "internalType": "uint256",
          "name": "",
          "type": "uint256"
        },
        {
          "internalType": "address",
          "name": "",
          "type": "address"
        }
      ],
      "stateMutability": "view",
      "type": "function"
    },
    {
      "inputs": [
        {
          "internalType": "uint256",
          "name": "my_property",
          "type": "uint256"
        }
      ],
      "name": "getData",
      "outputs": [
        {
          "internalType": "string",
          "name": "",
          "type": "string"
        },
        {
          "internalType": "string",
          "name": "",
          "type": "string"
        },
        {
          "internalType": "string",
          "name": "",
          "type": "string"
        },
        {
          "internalType": "string",
          "name": "",
          "type": "string"
        },
        {
          "internalType": "string",
          "name": "",
          "type": "string"
        },
        {
          "internalType": "uint256",
          "name": "",
          "type": "uint256"
        },
        {
          "internalType": "address",
          "name": "",
          "type": "address"
        },
        {
          "internalType": "bool",
          "name": "",
          "type": "bool"
        },
        {
          "internalType": "bool",
          "name": "",
          "type": "bool"
        }
      ],
      "stateMutability": "view",
      "type": "function"
    }
  ],
  "bytecode": "0x608060405260016000553480156200001657600080fd5b506040516200161d3803806200161d83398181016040528101906200003c9190620000aa565b816001819055508060028190555033600360006101000a81548173ffffffffffffffffffffffffffffffffffffffff021916908373ffffffffffffffffffffffffffffffffffffffff16021790555050506200010f565b600081519050620000a481620000f5565b92915050565b60008060408385031215620000be57600080fd5b6000620000ce8582860162000093565b9250506020620000e18582860162000093565b9150509250929050565b6000819050919050565b6200010081620000eb565b81146200010c57600080fd5b50565b6114fe806200011f6000396000f3fe6080604052600436106100555760003560e01c80630178fe3f1461005a5780632175ed161461009f57806322d60866146100c8578063293da5c3146100e45780635444228f1461010d5780636e9960c314610129575b600080fd5b34801561006657600080fd5b50610081600480360381019061007c9190610d9c565b610157565b60405161009699989796959493929190610eda565b60405180910390f35b3480156100ab57600080fd5b506100c660048036038101906100c19190610b77565b6104ba565b005b6100e260048036038101906100dd9190610bb3565b610582565b005b3480156100f057600080fd5b5061010b60048036038101906101069190610d21565b610736565b005b61012760048036038101906101229190610ca2565b61088f565b005b34801561013557600080fd5b5061013e610a02565b60405161014e949392919061102a565b60405180910390f35b60608060608060606000806000806000600460008c81526020019081526020016000209050806000018160010182600201836003018460040185600501548660060160009054906101000a900473ffffffffffffffffffffffffffffffffffffffff168760060160149054906101000a900460ff168860060160159054906101000a900460ff168880546101ea906111c5565b80601f0160208091040260200160405190810160405280929190818152602001828054610216906111c5565b80156102635780601f1061023857610100808354040283529160200191610263565b820191906000526020600020905b81548152906001019060200180831161024657829003601f168201915b50505050509850878054610276906111c5565b80601f01602080910402602001604051908101604052809291908181526020018280546102a2906111c5565b80156102ef5780601f106102c4576101008083540402835291602001916102ef565b820191906000526020600020905b8154815290600101906020018083116102d257829003601f168201915b50505050509750868054610302906111c5565b80601f016020809104026020016040519081016040528092919081815260200182805461032e906111c5565b801561037b5780601f106103505761010080835404028352916020019161037b565b820191906000526020600020905b81548152906001019060200180831161035e57829003601f168201915b5050505050965085805461038e906111c5565b80601f01602080910402602001604051908101604052809291908181526020018280546103ba906111c5565b80156104075780601f106103dc57610100808354040283529160200191610407565b820191906000526020600020905b8154815290600101906020018083116103ea57829003601f168201915b5050505050955084805461041a906111c5565b80601f0160208091040260200160405190810160405280929190818152602001828054610446906111c5565b80156104935780601f1061046857610100808354040283529160200191610493565b820191906000526020600020905b81548152906001019060200180831161047657829003601f168201915b50505050509450995099509950995099509950995099509950509193959799909294969850565b600360009054906101000a900473ffffffffffffffffffffffffffffffffffffffff1673ffffffffffffffffffffffffffffffffffffffff163373ffffffffffffffffffffffffffffffffffffffff161461054a576040517f08c379a000000000000000000000000000000000000000000000000000000000815260040161054190610f8a565b60405180910390fd5b6000600460008381526020019081526020016000209050828160060160156101000a81548160ff021916908315150217905550505050565b6040518061012001604052808681526020018581526020018481526020018381526020018281526020013481526020013373ffffffffffffffffffffffffffffffffffffffff168152602001600015158152602001600015158152506004600080548152602001908152602001600020600082015181600001908051906020019061060e929190610a42565b50602082015181600101908051906020019061062b929190610a42565b506040820151816002019080519060200190610648929190610a42565b506060820151816003019080519060200190610665929190610a42565b506080820151816004019080519060200190610682929190610a42565b5060a0820151816005015560c08201518160060160006101000a81548173ffffffffffffffffffffffffffffffffffffffff021916908373ffffffffffffffffffffffffffffffffffffffff16021790555060e08201518160060160146101000a81548160ff0219169083151502179055506101008201518160060160156101000a81548160ff02191690831515021790555090505060008081548092919061072a90611228565b91905055505050505050565b6000600460008381526020019081526020016000209050600115158160060160159054906101000a900460ff161515146107a5576040517f08c379a000000000000000000000000000000000000000000000000000000000815260040161079c90610fea565b60405180910390fd5b8060060160009054906101000a900473ffffffffffffffffffffffffffffffffffffffff1673ffffffffffffffffffffffffffffffffffffffff163373ffffffffffffffffffffffffffffffffffffffff1614610837576040517f08c379a000000000000000000000000000000000000000000000000000000000815260040161082e90610faa565b60405180910390fd5b8481600001908051906020019061084f929190610a42565b50670de0b6b3a76400008461086491906110e1565b8160050181905550828160060160146101000a81548160ff0219169083151502179055505050505050565b6000600460008381526020019081526020016000209050600115158160060160149054906101000a900460ff161515146108fe576040517f08c379a00000000000000000000000000000000000000000000000000000000081526004016108f59061100a565b60405180910390fd5b80600501543411610944576040517f08c379a000000000000000000000000000000000000000000000000000000000815260040161093b90610fca565b60405180910390fd5b8381600101908051906020019061095c929190610a42565b5082816004019080519060200190610975929190610a42565b50348160050181905550338160060160006101000a81548173ffffffffffffffffffffffffffffffffffffffff021916908373ffffffffffffffffffffffffffffffffffffffff16021790555060008160060160146101000a81548160ff02191690831515021790555060008160060160156101000a81548160ff02191690831515021790555050505050565b600080600080600054600154600254600360009054906101000a900473ffffffffffffffffffffffffffffffffffffffff16935093509350935090919293565b828054610a4e906111c5565b90600052602060002090601f016020900481019282610a705760008555610ab7565b82601f10610a8957805160ff1916838001178555610ab7565b82800160010185558215610ab7579182015b82811115610ab6578251825591602001919060010190610a9b565b5b509050610ac49190610ac8565b5090565b5b80821115610ae1576000816000905550600101610ac9565b5090565b6000610af8610af384611094565b61106f565b905082815260208101848484011115610b1057600080fd5b610b1b848285611183565b509392505050565b600081359050610b328161149a565b92915050565b600082601f830112610b4957600080fd5b8135610b59848260208601610ae5565b91505092915050565b600081359050610b71816114b1565b92915050565b60008060408385031215610b8a57600080fd5b6000610b9885828601610b23565b9250506020610ba985828601610b62565b9150509250929050565b600080600080600060a08688031215610bcb57600080fd5b600086013567ffffffffffffffff811115610be557600080fd5b610bf188828901610b38565b955050602086013567ffffffffffffffff811115610c0e57600080fd5b610c1a88828901610b38565b945050604086013567ffffffffffffffff811115610c3757600080fd5b610c4388828901610b38565b935050606086013567ffffffffffffffff811115610c6057600080fd5b610c6c88828901610b38565b925050608086013567ffffffffffffffff811115610c8957600080fd5b610c9588828901610b38565b9150509295509295909350565b600080600060608486031215610cb757600080fd5b600084013567ffffffffffffffff811115610cd157600080fd5b610cdd86828701610b38565b935050602084013567ffffffffffffffff811115610cfa57600080fd5b610d0686828701610b38565b9250506040610d1786828701610b62565b9150509250925092565b60008060008060808587031215610d3757600080fd5b600085013567ffffffffffffffff811115610d5157600080fd5b610d5d87828801610b38565b9450506020610d6e87828801610b62565b9350506040610d7f87828801610b23565b9250506060610d9087828801610b62565b91505092959194509250565b600060208284031215610dae57600080fd5b6000610dbc84828501610b62565b91505092915050565b610dce8161113b565b82525050565b610ddd8161114d565b82525050565b6000610dee826110c5565b610df881856110d0565b9350610e08818560208601611192565b610e11816112fe565b840191505092915050565b6000610e296029836110d0565b9150610e348261130f565b604082019050919050565b6000610e4c6028836110d0565b9150610e578261135e565b604082019050919050565b6000610e6f603a836110d0565b9150610e7a826113ad565b604082019050919050565b6000610e926033836110d0565b9150610e9d826113fc565b604082019050919050565b6000610eb56027836110d0565b9150610ec08261144b565b604082019050919050565b610ed481611179565b82525050565b6000610120820190508181036000830152610ef5818c610de3565b90508181036020830152610f09818b610de3565b90508181036040830152610f1d818a610de3565b90508181036060830152610f318189610de3565b90508181036080830152610f458188610de3565b9050610f5460a0830187610ecb565b610f6160c0830186610dc5565b610f6e60e0830185610dd4565b610f7c610100830184610dd4565b9a9950505050505050505050565b60006020820190508181036000830152610fa381610e1c565b9050919050565b60006020820190508181036000830152610fc381610e3f565b9050919050565b60006020820190508181036000830152610fe381610e62565b9050919050565b6000602082019050818103600083015261100381610e85565b9050919050565b6000602082019050818103600083015261102381610ea8565b9050919050565b600060808201905061103f6000830187610ecb565b61104c6020830186610ecb565b6110596040830185610ecb565b6110666060830184610dc5565b95945050505050565b600061107961108a565b905061108582826111f7565b919050565b6000604051905090565b600067ffffffffffffffff8211156110af576110ae6112cf565b5b6110b8826112fe565b9050602081019050919050565b600081519050919050565b600082825260208201905092915050565b60006110ec82611179565b91506110f783611179565b9250817fffffffffffffffffffffffffffffffffffffffffffffffffffffffffffffffff04831182151516156111305761112f611271565b5b828202905092915050565b600061114682611159565b9050919050565b60008115159050919050565b600073ffffffffffffffffffffffffffffffffffffffff82169050919050565b6000819050919050565b82818337600083830152505050565b60005b838110156111b0578082015181840152602081019050611195565b838111156111bf576000848401525b50505050565b600060028204905060018216806111dd57607f821691505b602082108114156111f1576111f06112a0565b5b50919050565b611200826112fe565b810181811067ffffffffffffffff8211171561121f5761121e6112cf565b5b80604052505050565b600061123382611179565b91507fffffffffffffffffffffffffffffffffffffffffffffffffffffffffffffffff82141561126657611265611271565b5b600182019050919050565b7f4e487b7100000000000000000000000000000000000000000000000000000000600052601160045260246000fd5b7f4e487b7100000000000000000000000000000000000000000000000000000000600052602260045260246000fd5b7f4e487b7100000000000000000000000000000000000000000000000000000000600052604160045260246000fd5b6000601f19601f8301169050919050565b7f546865204368616e67652063616e206f6e6c79206265206d616465206279207460008201527f6865204167656e63790000000000000000000000000000000000000000000000602082015250565b7f546865204368616e67652063616e206f6e6c79206265206d616465206279207460008201527f6865204f776e6572000000000000000000000000000000000000000000000000602082015250565b7f54686520507572636861736520416d6f756e74206d757374206265206772656160008201527f746572207468616e2053706563696669656420416d6f756e742e000000000000602082015250565b7f596f75206e65656420746f2068617665204167656e637920617070726f76616c60008201527f20746f2073656c6c207468697320546f6b656e00000000000000000000000000602082015250565b7f5468652050726f7065727479206d75737420626520617661696c61626c65207460008201527f6f2073656c6c2e00000000000000000000000000000000000000000000000000602082015250565b6114a38161114d565b81146114ae57600080fd5b50565b6114ba81611179565b81146114c557600080fd5b5056fea264697066735822122022f2e5d985c4f889f64dc9427dc547ac4883a9ab3e6da6b4bbaaa0e7895496aa64736f6c63430008040033",
  "linkReferences": {},
  "deployedLinkReferences": {}
}